{
  "contractName": "CandidateContract",
  "abi": [
    {
      "inputs": [],
      "stateMutability": "nonpayable",
      "type": "constructor"
    },
    {
      "inputs": [
        {
          "internalType": "uint256",
          "name": "",
          "type": "uint256"
        }
      ],
      "name": "candidates",
      "outputs": [
        {
          "internalType": "string",
          "name": "name",
          "type": "string"
        },
        {
          "internalType": "uint256",
          "name": "voteCount",
          "type": "uint256"
        }
      ],
      "stateMutability": "view",
      "type": "function"
    },
    {
      "inputs": [],
      "name": "owner",
      "outputs": [
        {
          "internalType": "address",
          "name": "",
          "type": "address"
        }
      ],
      "stateMutability": "view",
      "type": "function"
    },
    {
      "inputs": [
        {
          "internalType": "address",
          "name": "",
          "type": "address"
        }
      ],
      "name": "voters",
      "outputs": [
        {
          "internalType": "bool",
          "name": "",
          "type": "bool"
        }
      ],
      "stateMutability": "view",
      "type": "function"
    },
    {
      "inputs": [
        {
          "internalType": "string",
          "name": "_name",
          "type": "string"
        }
      ],
      "name": "addCandidate",
      "outputs": [],
      "stateMutability": "nonpayable",
      "type": "function"
    },
    {
      "inputs": [
        {
          "internalType": "uint256",
          "name": "_candidateIndex",
          "type": "uint256"
        }
      ],
      "name": "vote",
      "outputs": [],
      "stateMutability": "nonpayable",
      "type": "function"
    },
    {
      "inputs": [
        {
          "internalType": "uint256",
          "name": "_candidateIndex",
          "type": "uint256"
        }
      ],
      "name": "getVoteCount",
      "outputs": [
        {
          "internalType": "uint256",
          "name": "",
          "type": "uint256"
        }
      ],
      "stateMutability": "view",
      "type": "function"
    },
    {
      "inputs": [],
      "name": "getWinner",
      "outputs": [
        {
          "internalType": "uint256",
          "name": "",
          "type": "uint256"
        }
      ],
      "stateMutability": "view",
      "type": "function"
    }
  ],
  "bytecode": "0x608060405234801561001057600080fd5b5033600260006101000a81548173ffffffffffffffffffffffffffffffffffffffff021916908373ffffffffffffffffffffffffffffffffffffffff160217905550610c6f806100616000396000f3fe608060405234801561001057600080fd5b506004361061009a576000357c0100000000000000000000000000000000000000000000000000000000900480638da5cb5b116100785780638da5cb5b146101085780638e7ea5b214610126578063a3ec138d14610144578063b2c2f2e8146101745761009a565b80630121b93f1461009f5780633477ee2e146100bb578063462e91ec146100ec575b600080fd5b6100b960048036038101906100b491906107b7565b6101a4565b005b6100d560048036038101906100d091906107b7565b6102eb565b6040516100e39291906108c2565b60405180910390f35b61010660048036038101906101019190610776565b6103a7565b005b6101106104a4565b60405161011d919061088c565b60405180910390f35b61012e6104ca565b60405161013b9190610932565b60405180910390f35b61015e6004803603810190610159919061074d565b6105a3565b60405161016b91906108a7565b60405180910390f35b61018e600480360381019061018991906107b7565b6105c3565b60405161019b9190610932565b60405180910390f35b6000803373ffffffffffffffffffffffffffffffffffffffff1673ffffffffffffffffffffffffffffffffffffffff16815260200190815260200160002060009054906101000a900460ff1615610230576040517f08c379a0000000000000000000000000000000000000000000000000000000008152600401610227906108f2565b60405180910390fd5b6001818154811061026a577f4e487b7100000000000000000000000000000000000000000000000000000000600052603260045260246000fd5b9060005260206000209060020201600101600081548092919061028c90610aac565b919050555060016000803373ffffffffffffffffffffffffffffffffffffffff1673ffffffffffffffffffffffffffffffffffffffff16815260200190815260200160002060006101000a81548160ff02191690831515021790555050565b600181815481106102fb57600080fd5b906000526020600020906002020160009150905080600001805461031e90610a49565b80601f016020809104026020016040519081016040528092919081815260200182805461034a90610a49565b80156103975780601f1061036c57610100808354040283529160200191610397565b820191906000526020600020905b81548152906001019060200180831161037a57829003601f168201915b5050505050908060010154905082565b600260009054906101000a900473ffffffffffffffffffffffffffffffffffffffff1673ffffffffffffffffffffffffffffffffffffffff163373ffffffffffffffffffffffffffffffffffffffff1614610437576040517f08c379a000000000000000000000000000000000000000000000000000000000815260040161042e90610912565b60405180910390fd5b60016040518060400160405280838152602001600081525090806001815401808255809150506001900390600052602060002090600202016000909190919091506000820151816000019080519060200190610494929190610618565b5060208201518160010155505050565b600260009054906101000a900473ffffffffffffffffffffffffffffffffffffffff1681565b600080600090506000805b60018054905081101561059a57816001828154811061051d577f4e487b7100000000000000000000000000000000000000000000000000000000600052603260045260246000fd5b90600052602060002090600202016001015411156105875780925060018181548110610572577f4e487b7100000000000000000000000000000000000000000000000000000000600052603260045260246000fd5b90600052602060002090600202016001015491505b808061059290610aac565b9150506104d5565b50819250505090565b60006020528060005260406000206000915054906101000a900460ff1681565b6000600182815481106105ff577f4e487b7100000000000000000000000000000000000000000000000000000000600052603260045260246000fd5b9060005260206000209060020201600101549050919050565b82805461062490610a49565b90600052602060002090601f016020900481019282610646576000855561068d565b82601f1061065f57805160ff191683800117855561068d565b8280016001018555821561068d579182015b8281111561068c578251825591602001919060010190610671565b5b50905061069a919061069e565b5090565b5b808211156106b757600081600090555060010161069f565b5090565b60006106ce6106c984610972565b61094d565b9050828152602081018484840111156106e657600080fd5b6106f1848285610a07565b509392505050565b60008135905061070881610c0b565b92915050565b600082601f83011261071f57600080fd5b813561072f8482602086016106bb565b91505092915050565b60008135905061074781610c22565b92915050565b60006020828403121561075f57600080fd5b600061076d848285016106f9565b91505092915050565b60006020828403121561078857600080fd5b600082013567ffffffffffffffff8111156107a257600080fd5b6107ae8482850161070e565b91505092915050565b6000602082840312156107c957600080fd5b60006107d784828501610738565b91505092915050565b6107e9816109bf565b82525050565b6107f8816109d1565b82525050565b6000610809826109a3565b61081381856109ae565b9350610823818560208601610a16565b61082c81610b82565b840191505092915050565b60006108446017836109ae565b915061084f82610b93565b602082019050919050565b6000610867602b836109ae565b915061087282610bbc565b604082019050919050565b610886816109fd565b82525050565b60006020820190506108a160008301846107e0565b92915050565b60006020820190506108bc60008301846107ef565b92915050565b600060408201905081810360008301526108dc81856107fe565b90506108eb602083018461087d565b9392505050565b6000602082019050818103600083015261090b81610837565b9050919050565b6000602082019050818103600083015261092b8161085a565b9050919050565b6000602082019050610947600083018461087d565b92915050565b6000610957610968565b90506109638282610a7b565b919050565b6000604051905090565b600067ffffffffffffffff82111561098d5761098c610b53565b5b61099682610b82565b9050602081019050919050565b600081519050919050565b600082825260208201905092915050565b60006109ca826109dd565b9050919050565b60008115159050919050565b600073ffffffffffffffffffffffffffffffffffffffff82169050919050565b6000819050919050565b82818337600083830152505050565b60005b83811015610a34578082015181840152602081019050610a19565b83811115610a43576000848401525b50505050565b60006002820490506001821680610a6157607f821691505b60208210811415610a7557610a74610b24565b5b50919050565b610a8482610b82565b810181811067ffffffffffffffff82111715610aa357610aa2610b53565b5b80604052505050565b6000610ab7826109fd565b91507fffffffffffffffffffffffffffffffffffffffffffffffffffffffffffffffff821415610aea57610ae9610af5565b5b600182019050919050565b7f4e487b7100000000000000000000000000000000000000000000000000000000600052601160045260246000fd5b7f4e487b7100000000000000000000000000000000000000000000000000000000600052602260045260246000fd5b7f4e487b7100000000000000000000000000000000000000000000000000000000600052604160045260246000fd5b6000601f19601f8301169050919050565b7f596f75206861766520616c726561647920766f7465642e000000000000000000600082015250565b7f4f6e6c792074686520636f6e7472616374206f776e65722063616e206164642060008201527f63616e646964617465732e000000000000000000000000000000000000000000602082015250565b610c14816109bf565b8114610c1f57600080fd5b50565b610c2b816109fd565b8114610c3657600080fd5b5056fea264697066735822122029125c65297874e9a8001aaf104dc95688c3c283c9f6f8b3c7c817b58d3d8bfe64736f6c63430008040033",
  "immutableReferences": {},
  "source": "// SPDX-License-Identifier: MIT\r\npragma solidity ^0.8.0;\r\n\r\ncontract CandidateContract {\r\n    // Struct for a candidate\r\n    struct Candidate {\r\n        string name;\r\n        uint voteCount;\r\n    }\r\n\r\n    // Mapping from voter address to a boolean value\r\n    // true if the voter has already voted, false otherwise\r\n    mapping(address => bool) public voters;\r\n\r\n    // List of candidates\r\n    Candidate[] public candidates;\r\n\r\n    // Address of the contract owner\r\n    address public owner;\r\n\r\n    constructor() {\r\n        owner = msg.sender;\r\n    }\r\n\r\n    // Function to add a new candidate\r\n    function addCandidate(string memory _name) public {\r\n        require(msg.sender == owner, \"Only the contract owner can add candidates.\");\r\n        candidates.push(Candidate(_name, 0));\r\n    }\r\n\r\n    // Function to cast a vote\r\n    function vote(uint _candidateIndex) public {\r\n        // Ensure that the voter has not already voted\r\n        require(!voters[msg.sender], \"You have already voted.\");\r\n\r\n        // Increment the vote count for the chosen candidate\r\n        candidates[_candidateIndex].voteCount++;\r\n\r\n        // Set the mapping value to true to prevent the voter from voting again\r\n        voters[msg.sender] = true;\r\n    }\r\n\r\n    // Function to get the total number of votes for a particular candidate\r\n    function getVoteCount(uint _candidateIndex) public view returns (uint) {\r\n        return candidates[_candidateIndex].voteCount;\r\n    }\r\n\r\n    // Function to get the winner of the election\r\n    function getWinner() public view returns (uint) {\r\n        uint winningIndex = 0;\r\n        uint winningVotes = 0;\r\n        for (uint i = 0; i < candidates.length; i++) {\r\n            if (candidates[i].voteCount > winningVotes) {\r\n                winningIndex = i;\r\n                winningVotes = candidates[i].voteCount;\r\n            }\r\n        }\r\n        return winningIndex;\r\n    }\r\n}\r\n",
  "sourcePath": "D:\\Projects\\networkpoll\\contracts\\CandidateContract.sol",
  "compiler": {
    "name": "solc",
    "version": "0.8.4+commit.c7e474f2.Emscripten.clang"
  },
  "schemaVersion": "3.4.10",
  "updatedAt": "2023-01-11T05:02:13.806Z",
  "devdoc": {
    "kind": "dev",
    "methods": {},
    "version": 1
  },
  "userdoc": {
    "kind": "user",
    "methods": {},
    "version": 1
  }
}