{
  "contractName": "EVotingVR2",
  "abi": [
    {
      "inputs": [],
      "name": "electionCount",
      "outputs": [
        {
          "internalType": "uint256",
          "name": "",
          "type": "uint256"
        }
      ],
      "stateMutability": "view",
      "type": "function",
      "constant": true
    },
    {
      "inputs": [
        {
          "internalType": "uint256",
          "name": "",
          "type": "uint256"
        }
      ],
      "name": "electionIds",
      "outputs": [
        {
          "internalType": "uint256",
          "name": "",
          "type": "uint256"
        }
      ],
      "stateMutability": "view",
      "type": "function",
      "constant": true
    },
    {
      "inputs": [
        {
          "internalType": "uint256",
          "name": "",
          "type": "uint256"
        }
      ],
      "name": "elections",
      "outputs": [
        {
          "internalType": "uint256",
          "name": "id",
          "type": "uint256"
        },
        {
          "internalType": "string",
          "name": "name",
          "type": "string"
        },
        {
          "internalType": "bool",
          "name": "active",
          "type": "bool"
        }
      ],
      "stateMutability": "view",
      "type": "function",
      "constant": true
    },
    {
      "inputs": [
        {
          "internalType": "uint256",
          "name": "",
          "type": "uint256"
        },
        {
          "internalType": "address",
          "name": "",
          "type": "address"
        }
      ],
      "name": "hasVoted",
      "outputs": [
        {
          "internalType": "bool",
          "name": "",
          "type": "bool"
        }
      ],
      "stateMutability": "view",
      "type": "function",
      "constant": true
    },
    {
      "inputs": [
        {
          "internalType": "string",
          "name": "_name",
          "type": "string"
        },
        {
          "internalType": "string[]",
          "name": "_candidates",
          "type": "string[]"
        }
      ],
      "name": "createElection",
      "outputs": [],
      "stateMutability": "nonpayable",
      "type": "function"
    },
    {
      "inputs": [
        {
          "internalType": "uint256",
          "name": "_electionId",
          "type": "uint256"
        },
        {
          "internalType": "uint256",
          "name": "_candidateIndex",
          "type": "uint256"
        }
      ],
      "name": "vote",
      "outputs": [],
      "stateMutability": "nonpayable",
      "type": "function"
    },
    {
      "inputs": [
        {
          "internalType": "uint256",
          "name": "_electionId",
          "type": "uint256"
        }
      ],
      "name": "getResults",
      "outputs": [
        {
          "internalType": "string[]",
          "name": "",
          "type": "string[]"
        },
        {
          "internalType": "uint256[]",
          "name": "",
          "type": "uint256[]"
        }
      ],
      "stateMutability": "view",
      "type": "function",
      "constant": true
    },
    {
      "inputs": [
        {
          "internalType": "uint256",
          "name": "_electionId",
          "type": "uint256"
        }
      ],
      "name": "endElection",
      "outputs": [],
      "stateMutability": "nonpayable",
      "type": "function"
    }
  ],
  "bytecode": "0x608060405234801561001057600080fd5b50611421806100206000396000f3fe608060405234801561001057600080fd5b50600436106100a5576000357c01000000000000000000000000000000000000000000000000000000009004806381a60c0d1161007857806381a60c0d14610158578063997d2830146101895780639c98bcbb146101a7578063b384abef146101c3576100a5565b806302330a61146100aa578063349813b2146100da57806343859632146100f65780635e6fef0114610126575b600080fd5b6100c460048036038101906100bf9190610be2565b6101df565b6040516100d19190610f7f565b60405180910390f35b6100f460048036038101906100ef9190610b76565b610203565b005b610110600480360381019061010b9190610c0b565b61037f565b60405161011d9190610ee4565b60405180910390f35b610140600480360381019061013b9190610be2565b6103ae565b60405161014f93929190610f9a565b60405180910390f35b610172600480360381019061016d9190610be2565b61046d565b604051610180929190610ead565b60405180910390f35b6101916105bd565b60405161019e9190610f7f565b60405180910390f35b6101c160048036038101906101bc9190610be2565b6105c3565b005b6101dd60048036038101906101d89190610c47565b610668565b005b600181815481106101ef57600080fd5b906000526020600020016000915090505481565b60026000815480929190610216906111e6565b9190505550600060025490506040518060a00160405280828152602001848152602001838152602001835167ffffffffffffffff811115610280577f4e487b7100000000000000000000000000000000000000000000000000000000600052604160045260246000fd5b6040519080825280602002602001820160405280156102ae5781602001602082028036833780820191505090505b508152602001600115158152506000808381526020019081526020016000206000820151816000015560208201518160010190805190602001906102f3929190610880565b506040820151816002019080519060200190610310929190610906565b50606082015181600301908051906020019061032d929190610966565b5060808201518160040160006101000a81548160ff0219169083151502179055509050506001819080600181540180825580915050600190039060005260206000200160009091909190915055505050565b60036020528160005260406000206020528060005260406000206000915091509054906101000a900460ff1681565b60006020528060005260406000206000915090508060000154908060010180546103d790611183565b80601f016020809104026020016040519081016040528092919081815260200182805461040390611183565b80156104505780601f1061042557610100808354040283529160200191610450565b820191906000526020600020905b81548152906001019060200180831161043357829003601f168201915b5050505050908060040160009054906101000a900460ff16905083565b60608060008060008581526020019081526020016000209050806002018160030181805480602002602001604051908101604052809291908181526020016000905b8282101561055b5783829060005260206000200180546104ce90611183565b80601f01602080910402602001604051908101604052809291908181526020018280546104fa90611183565b80156105475780601f1061051c57610100808354040283529160200191610547565b820191906000526020600020905b81548152906001019060200180831161052a57829003601f168201915b5050505050815260200190600101906104af565b505050509150808054806020026020016040519081016040528092919081815260200182805480156105ac57602002820191906000526020600020905b815481526020019060010190808311610598575b505050505090509250925050915091565b60025481565b600080600083815260200190815260200160002090503073ffffffffffffffffffffffffffffffffffffffff163373ffffffffffffffffffffffffffffffffffffffff1614610647576040517f08c379a000000000000000000000000000000000000000000000000000000000815260040161063e90610f1f565b60405180910390fd5b60008160040160006101000a81548160ff0219169083151502179055505050565b600080600084815260200190815260200160002090508060040160009054906101000a900460ff166106cf576040517f08c379a00000000000000000000000000000000000000000000000000000000081526004016106c690610f5f565b60405180910390fd5b80600201805490508210610718576040517f08c379a000000000000000000000000000000000000000000000000000000000815260040161070f90610f3f565b60405180910390fd5b6003600084815260200190815260200160002060003373ffffffffffffffffffffffffffffffffffffffff1673ffffffffffffffffffffffffffffffffffffffff16815260200190815260200160002060009054906101000a900460ff16156107b6576040517f08c379a00000000000000000000000000000000000000000000000000000000081526004016107ad90610eff565b60405180910390fd5b8060030182815481106107f2577f4e487b7100000000000000000000000000000000000000000000000000000000600052603260045260246000fd5b90600052602060002001600081548092919061080d906111e6565b919050555060016003600085815260200190815260200160002060003373ffffffffffffffffffffffffffffffffffffffff1673ffffffffffffffffffffffffffffffffffffffff16815260200190815260200160002060006101000a81548160ff021916908315150217905550505050565b82805461088c90611183565b90600052602060002090601f0160209004810192826108ae57600085556108f5565b82601f106108c757805160ff19168380011785556108f5565b828001600101855582156108f5579182015b828111156108f45782518255916020019190600101906108d9565b5b50905061090291906109b3565b5090565b828054828255906000526020600020908101928215610955579160200282015b82811115610954578251829080519060200190610944929190610880565b5091602001919060010190610926565b5b50905061096291906109d0565b5090565b8280548282559060005260206000209081019282156109a2579160200282015b828111156109a1578251825591602001919060010190610986565b5b5090506109af91906109b3565b5090565b5b808211156109cc5760008160009055506001016109b4565b5090565b5b808211156109f057600081816109e791906109f4565b506001016109d1565b5090565b508054610a0090611183565b6000825580601f10610a125750610a31565b601f016020900490600052602060002090810190610a3091906109b3565b5b50565b6000610a47610a4284610ffd565b610fd8565b90508083825260208201905082856020860282011115610a6657600080fd5b60005b85811015610ab057813567ffffffffffffffff811115610a8857600080fd5b808601610a958982610b37565b85526020850194506020840193505050600181019050610a69565b5050509392505050565b6000610acd610ac884611029565b610fd8565b905082815260208101848484011115610ae557600080fd5b610af0848285611141565b509392505050565b600081359050610b07816113bd565b92915050565b600082601f830112610b1e57600080fd5b8135610b2e848260208601610a34565b91505092915050565b600082601f830112610b4857600080fd5b8135610b58848260208601610aba565b91505092915050565b600081359050610b70816113d4565b92915050565b60008060408385031215610b8957600080fd5b600083013567ffffffffffffffff811115610ba357600080fd5b610baf85828601610b37565b925050602083013567ffffffffffffffff811115610bcc57600080fd5b610bd885828601610b0d565b9150509250929050565b600060208284031215610bf457600080fd5b6000610c0284828501610b61565b91505092915050565b60008060408385031215610c1e57600080fd5b6000610c2c85828601610b61565b9250506020610c3d85828601610af8565b9150509250929050565b60008060408385031215610c5a57600080fd5b6000610c6885828601610b61565b9250506020610c7985828601610b61565b9150509250929050565b6000610c8f8383610d91565b905092915050565b6000610ca38383610e8f565b60208301905092915050565b6000610cba8261107a565b610cc481856110b5565b935083602082028501610cd68561105a565b8060005b85811015610d125784840389528151610cf38582610c83565b9450610cfe8361109b565b925060208a01995050600181019050610cda565b50829750879550505050505092915050565b6000610d2f82611085565b610d3981856110c6565b9350610d448361106a565b8060005b83811015610d75578151610d5c8882610c97565b9750610d67836110a8565b925050600181019050610d48565b5085935050505092915050565b610d8b8161110b565b82525050565b6000610d9c82611090565b610da681856110d7565b9350610db6818560208601611150565b610dbf816112bc565b840191505092915050565b6000610dd582611090565b610ddf81856110e8565b9350610def818560208601611150565b610df8816112bc565b840191505092915050565b6000610e106027836110e8565b9150610e1b826112cd565b604082019050919050565b6000610e33602b836110e8565b9150610e3e8261131c565b604082019050919050565b6000610e566017836110e8565b9150610e618261136b565b602082019050919050565b6000610e796016836110e8565b9150610e8482611394565b602082019050919050565b610e9881611137565b82525050565b610ea781611137565b82525050565b60006040820190508181036000830152610ec78185610caf565b90508181036020830152610edb8184610d24565b90509392505050565b6000602082019050610ef96000830184610d82565b92915050565b60006020820190508181036000830152610f1881610e03565b9050919050565b60006020820190508181036000830152610f3881610e26565b9050919050565b60006020820190508181036000830152610f5881610e49565b9050919050565b60006020820190508181036000830152610f7881610e6c565b9050919050565b6000602082019050610f946000830184610e9e565b92915050565b6000606082019050610faf6000830186610e9e565b8181036020830152610fc18185610dca565b9050610fd06040830184610d82565b949350505050565b6000610fe2610ff3565b9050610fee82826111b5565b919050565b6000604051905090565b600067ffffffffffffffff8211156110185761101761128d565b5b602082029050602081019050919050565b600067ffffffffffffffff8211156110445761104361128d565b5b61104d826112bc565b9050602081019050919050565b6000819050602082019050919050565b6000819050602082019050919050565b600081519050919050565b600081519050919050565b600081519050919050565b6000602082019050919050565b6000602082019050919050565b600082825260208201905092915050565b600082825260208201905092915050565b600082825260208201905092915050565b600082825260208201905092915050565b600061110482611117565b9050919050565b60008115159050919050565b600073ffffffffffffffffffffffffffffffffffffffff82169050919050565b6000819050919050565b82818337600083830152505050565b60005b8381101561116e578082015181840152602081019050611153565b8381111561117d576000848401525b50505050565b6000600282049050600182168061119b57607f821691505b602082108114156111af576111ae61125e565b5b50919050565b6111be826112bc565b810181811067ffffffffffffffff821117156111dd576111dc61128d565b5b80604052505050565b60006111f182611137565b91507fffffffffffffffffffffffffffffffffffffffffffffffffffffffffffffffff8214156112245761122361122f565b5b600182019050919050565b7f4e487b7100000000000000000000000000000000000000000000000000000000600052601160045260246000fd5b7f4e487b7100000000000000000000000000000000000000000000000000000000600052602260045260246000fd5b7f4e487b7100000000000000000000000000000000000000000000000000000000600052604160045260246000fd5b6000601f19601f8301169050919050565b7f596f75206861766520616c726561647920766f74656420696e2074686973206560008201527f6c656374696f6e00000000000000000000000000000000000000000000000000602082015250565b7f4f6e6c792074686520636f6e7472616374206f776e65722063616e20656e642060008201527f616e20656c656374696f6e000000000000000000000000000000000000000000602082015250565b7f496e76616c69642063616e64696461746520696e646578000000000000000000600082015250565b7f456c656374696f6e206973206e6f742061637469766500000000000000000000600082015250565b6113c6816110f9565b81146113d157600080fd5b50565b6113dd81611137565b81146113e857600080fd5b5056fea26469706673582212204b6247b9c53a59f7e6801641d0bee204776e33515e19a250282dd07cb64e90ac64736f6c63430008040033",
  "immutableReferences": {},
  "source": "// SPDX-License-Identifier: MIT\r\npragma solidity ^0.8.0;\r\n\r\ncontract EVotingVR2 {\r\n    // Struct to represent an election\r\n    struct Election {\r\n        uint id;\r\n        string name;\r\n        string[] candidates;\r\n        uint[] votes;\r\n        bool active;\r\n    }\r\n\r\n    // Mapping from election id to election struct\r\n    mapping(uint => Election) public elections;\r\n\r\n    // Array of all election IDs\r\n    uint[] public electionIds;\r\n\r\n    // Number of elections created\r\n    uint public electionCount;\r\n\r\n    // Mapping to store whether a given address has already voted in a given election\r\n    mapping(uint => mapping(address => bool)) public hasVoted;\r\n\r\n    // Create a new election with a given name and list of candidates\r\n    function createElection(string memory _name, string[] memory _candidates) public {\r\n        // Create a new election struct and add it to the mapping\r\n        electionCount++;\r\n        uint id = electionCount;\r\n        elections[id] = Election(\r\n            id,\r\n            _name,\r\n            _candidates,\r\n            new uint[](_candidates.length),\r\n            true\r\n        );\r\n        // Add the election ID to the array of all election IDs\r\n        electionIds.push(id);\r\n    }\r\n\r\n    // Cast a vote in a given election for a given candidate\r\n    function vote(uint _electionId, uint _candidateIndex) public {\r\n        // Get the election struct\r\n        Election storage election = elections[_electionId];\r\n\r\n        // Ensure the election is active\r\n        require(election.active, \"Election is not active\");\r\n\r\n        // Ensure the candidate index is valid\r\n        require(_candidateIndex < election.candidates.length, \"Invalid candidate index\");\r\n\r\n        // Ensure the voter has not already voted in this election\r\n        require(!hasVoted[_electionId][msg.sender], \"You have already voted in this election\");\r\n\r\n        // Cast the vote and mark that the voter has voted\r\n        election.votes[_candidateIndex]++;\r\n        hasVoted[_electionId][msg.sender] = true;\r\n    }\r\n\r\n    // Get the results of a given election\r\n    function getResults(uint _electionId) public view returns (string[] memory, uint[] memory) {\r\n        // Get the election struct\r\n        Election storage election = elections[_electionId];\r\n\r\n        // Return the candidates and their vote totals\r\n        return (election.candidates, election.votes);\r\n    }\r\n\r\n    // End an election\r\n    function endElection(uint _electionId) public {\r\n        // Get the election struct\r\n        Election storage election = elections[_electionId];\r\n\r\n        // Ensure the caller is the owner of the contract\r\n        require(msg.sender == address(this), \"Only the contract owner can end an election\");\r\n\r\n        // Set the active flag to false\r\n        election.active = false;\r\n    }\r\n}",
  "sourcePath": "D:\\Projects\\networkpoll\\contracts\\EVotingVR2.sol",
  "compiler": {
    "name": "solc",
    "version": "0.8.4+commit.c7e474f2.Emscripten.clang"
  },
  "schemaVersion": "3.4.10",
  "updatedAt": "2022-12-26T20:52:20.338Z",
  "networkType": "ethereum",
  "devdoc": {
    "kind": "dev",
    "methods": {},
    "version": 1
  },
  "userdoc": {
    "kind": "user",
    "methods": {},
    "version": 1
  }
}