{
  "contractName": "EVoting",
  "abi": [
    {
      "inputs": [
        {
          "internalType": "string[]",
          "name": "candidateNames",
          "type": "string[]"
        }
      ],
      "stateMutability": "nonpayable",
      "type": "constructor"
    },
    {
      "anonymous": false,
      "inputs": [
        {
          "indexed": false,
          "internalType": "address",
          "name": "voter",
          "type": "address"
        }
      ],
      "name": "VoterCastedVote",
      "type": "event"
    },
    {
      "inputs": [
        {
          "internalType": "uint256",
          "name": "",
          "type": "uint256"
        }
      ],
      "name": "candidates",
      "outputs": [
        {
          "internalType": "string",
          "name": "",
          "type": "string"
        }
      ],
      "stateMutability": "view",
      "type": "function"
    },
    {
      "inputs": [
        {
          "internalType": "address",
          "name": "",
          "type": "address"
        }
      ],
      "name": "voters",
      "outputs": [
        {
          "internalType": "address",
          "name": "addr",
          "type": "address"
        },
        {
          "internalType": "bool",
          "name": "voted",
          "type": "bool"
        }
      ],
      "stateMutability": "view",
      "type": "function"
    },
    {
      "inputs": [
        {
          "internalType": "uint256",
          "name": "",
          "type": "uint256"
        }
      ],
      "name": "votesReceived",
      "outputs": [
        {
          "internalType": "uint256",
          "name": "",
          "type": "uint256"
        }
      ],
      "stateMutability": "view",
      "type": "function"
    },
    {
      "inputs": [
        {
          "internalType": "uint256",
          "name": "candidate",
          "type": "uint256"
        }
      ],
      "name": "vote",
      "outputs": [],
      "stateMutability": "nonpayable",
      "type": "function"
    },
    {
      "inputs": [
        {
          "internalType": "uint256",
          "name": "candidate",
          "type": "uint256"
        }
      ],
      "name": "getVotesReceived",
      "outputs": [
        {
          "internalType": "uint256",
          "name": "",
          "type": "uint256"
        }
      ],
      "stateMutability": "view",
      "type": "function"
    }
  ],
  "bytecode": "0x60806040523480156200001157600080fd5b5060405162000e8a38038062000e8a8339818101604052810190620000379190620003e7565b80600190805190602001906200004f929190620000e1565b50805167ffffffffffffffff81111562000092577f4e487b7100000000000000000000000000000000000000000000000000000000600052604160045260246000fd5b604051908082528060200260200182016040528015620000c15781602001602082028036833780820191505090505b5060029080519060200190620000d992919062000148565b5050620005cb565b82805482825590600052602060002090810192821562000135579160200282015b8281111562000134578251829080519060200190620001239291906200019a565b509160200191906001019062000102565b5b5090506200014491906200022b565b5090565b82805482825590600052602060002090810192821562000187579160200282015b828111156200018657825182559160200191906001019062000169565b5b50905062000196919062000253565b5090565b828054620001a890620004f0565b90600052602060002090601f016020900481019282620001cc576000855562000218565b82601f10620001e757805160ff191683800117855562000218565b8280016001018555821562000218579182015b8281111562000217578251825591602001919060010190620001fa565b5b50905062000227919062000253565b5090565b5b808211156200024f576000818162000245919062000272565b506001016200022c565b5090565b5b808211156200026e57600081600090555060010162000254565b5090565b5080546200028090620004f0565b6000825580601f10620002945750620002b5565b601f016020900490600052602060002090810190620002b4919062000253565b5b50565b6000620002cf620002c98462000455565b6200042c565b90508083825260208201905082856020860282011115620002ef57600080fd5b60005b858110156200033e57815167ffffffffffffffff8111156200031357600080fd5b808601620003228982620003ba565b85526020850194506020840193505050600181019050620002f2565b5050509392505050565b60006200035f620003598462000484565b6200042c565b9050828152602081018484840111156200037857600080fd5b62000385848285620004ba565b509392505050565b600082601f8301126200039f57600080fd5b8151620003b1848260208601620002b8565b91505092915050565b600082601f830112620003cc57600080fd5b8151620003de84826020860162000348565b91505092915050565b600060208284031215620003fa57600080fd5b600082015167ffffffffffffffff8111156200041557600080fd5b62000423848285016200038d565b91505092915050565b6000620004386200044b565b905062000446828262000526565b919050565b6000604051905090565b600067ffffffffffffffff8211156200047357620004726200058b565b5b602082029050602081019050919050565b600067ffffffffffffffff821115620004a257620004a16200058b565b5b620004ad82620005ba565b9050602081019050919050565b60005b83811015620004da578082015181840152602081019050620004bd565b83811115620004ea576000848401525b50505050565b600060028204905060018216806200050957607f821691505b6020821081141562000520576200051f6200055c565b5b50919050565b6200053182620005ba565b810181811067ffffffffffffffff821117156200055357620005526200058b565b5b80604052505050565b7f4e487b7100000000000000000000000000000000000000000000000000000000600052602260045260246000fd5b7f4e487b7100000000000000000000000000000000000000000000000000000000600052604160045260246000fd5b6000601f19601f8301169050919050565b6108af80620005db6000396000f3fe608060405234801561001057600080fd5b5060043610610074576000357c0100000000000000000000000000000000000000000000000000000000900480630121b93f146100795780633477ee2e146100955780637bff4816146100c5578063a3ec138d146100f5578063f3084a6314610126575b600080fd5b610093600480360381019061008e91906104e2565b610156565b005b6100af60048036038101906100aa91906104e2565b610320565b6040516100bc91906105fb565b60405180910390f35b6100df60048036038101906100da91906104e2565b6103cc565b6040516100ec919061065d565b60405180910390f35b61010f600480360381019061010a91906104b9565b61041a565b60405161011d9291906105d2565b60405180910390f35b610140600480360381019061013b91906104e2565b61046b565b60405161014d919061065d565b60405180910390f35b600015156000803373ffffffffffffffffffffffffffffffffffffffff1673ffffffffffffffffffffffffffffffffffffffff16815260200190815260200160002060000160149054906101000a900460ff161515146101eb576040517f08c379a00000000000000000000000000000000000000000000000000000000081526004016101e29061061d565b60405180910390fd5b6001805490508110610232576040517f08c379a00000000000000000000000000000000000000000000000000000000081526004016102299061063d565b60405180910390fd5b60016000803373ffffffffffffffffffffffffffffffffffffffff1673ffffffffffffffffffffffffffffffffffffffff16815260200190815260200160002060000160146101000a81548160ff021916908315150217905550600281815481106102c6577f4e487b7100000000000000000000000000000000000000000000000000000000600052603260045260246000fd5b9060005260206000200160008154809291906102e190610741565b91905055507f53c6951029b58e5c552846e95719d50bc0e62976fdb2d7f27f0930d9d3bbb6393360405161031591906105b7565b60405180910390a150565b6001818154811061033057600080fd5b90600052602060002001600091509050805461034b9061070f565b80601f01602080910402602001604051908101604052809291908181526020018280546103779061070f565b80156103c45780601f10610399576101008083540402835291602001916103c4565b820191906000526020600020905b8154815290600101906020018083116103a757829003601f168201915b505050505081565b600060028281548110610408577f4e487b7100000000000000000000000000000000000000000000000000000000600052603260045260246000fd5b90600052602060002001549050919050565b60006020528060005260406000206000915090508060000160009054906101000a900473ffffffffffffffffffffffffffffffffffffffff16908060000160149054906101000a900460ff16905082565b6002818154811061047b57600080fd5b906000526020600020016000915090505481565b60008135905061049e8161084b565b92915050565b6000813590506104b381610862565b92915050565b6000602082840312156104cb57600080fd5b60006104d98482850161048f565b91505092915050565b6000602082840312156104f457600080fd5b6000610502848285016104a4565b91505092915050565b61051481610694565b82525050565b610523816106a6565b82525050565b600061053482610678565b61053e8185610683565b935061054e8185602086016106dc565b610557816107e8565b840191505092915050565b600061056f601783610683565b915061057a826107f9565b602082019050919050565b6000610592601283610683565b915061059d82610822565b602082019050919050565b6105b1816106d2565b82525050565b60006020820190506105cc600083018461050b565b92915050565b60006040820190506105e7600083018561050b565b6105f4602083018461051a565b9392505050565b600060208201905081810360008301526106158184610529565b905092915050565b6000602082019050818103600083015261063681610562565b9050919050565b6000602082019050818103600083015261065681610585565b9050919050565b600060208201905061067260008301846105a8565b92915050565b600081519050919050565b600082825260208201905092915050565b600061069f826106b2565b9050919050565b60008115159050919050565b600073ffffffffffffffffffffffffffffffffffffffff82169050919050565b6000819050919050565b60005b838110156106fa5780820151818401526020810190506106df565b83811115610709576000848401525b50505050565b6000600282049050600182168061072757607f821691505b6020821081141561073b5761073a6107b9565b5b50919050565b600061074c826106d2565b91507fffffffffffffffffffffffffffffffffffffffffffffffffffffffffffffffff82141561077f5761077e61078a565b5b600182019050919050565b7f4e487b7100000000000000000000000000000000000000000000000000000000600052601160045260246000fd5b7f4e487b7100000000000000000000000000000000000000000000000000000000600052602260045260246000fd5b6000601f19601f8301169050919050565b7f596f75206861766520616c726561647920766f7465642e000000000000000000600082015250565b7f496e76616c69642063616e6469646174652e0000000000000000000000000000600082015250565b61085481610694565b811461085f57600080fd5b50565b61086b816106d2565b811461087657600080fd5b5056fea264697066735822122011c773693302511b9dd8b8041ec8b549e452aae92d929b59162e5b92d589fed064736f6c63430008040033",
  "immutableReferences": {},
  "source": "// SPDX-License-Identifier: MIT\r\npragma solidity ^0.8.0;\r\n\r\ncontract EVoting {\r\n  // Struct to hold information about a voter\r\n  struct Voter {\r\n    address addr; // Ethereum address of the voter\r\n    bool voted; // Flag to indicate if the voter has already voted\r\n  }\r\n\r\n  // Mapping to store information about all voters\r\n  mapping (address => Voter) public voters;\r\n\r\n  // Candidate names\r\n  string[] public candidates;\r\n\r\n  // Number of votes received by each candidate\r\n  uint[] public votesReceived;\r\n\r\n  // Event to be emitted when a voter casts their vote\r\n  event VoterCastedVote(address voter);\r\n\r\n  // Constructor to initialize contract with a list of candidates\r\n  constructor(string[] memory candidateNames) {\r\n    candidates = candidateNames;\r\n    votesReceived = new uint[](candidateNames.length);\r\n  }\r\n\r\n  // Function to allow a voter to cast their vote\r\n  function vote(uint candidate) public {\r\n    // Ensure that the voter has not already voted\r\n    require(voters[msg.sender].voted == false, \"You have already voted.\");\r\n\r\n    // Ensure that the candidate number is valid\r\n    require(candidate < candidates.length, \"Invalid candidate.\");\r\n\r\n    // Mark the voter as having voted\r\n    voters[msg.sender].voted = true;\r\n\r\n    // Increment the vote count for the selected candidate\r\n    votesReceived[candidate]++;\r\n\r\n    // Emit an event to indicate that the voter has cast their vote\r\n    emit VoterCastedVote(msg.sender);\r\n  }\r\n\r\n  // Function to get the total number of votes received by a particular candidate\r\n  function getVotesReceived(uint candidate) public view returns (uint) {\r\n    return votesReceived[candidate];\r\n  }\r\n}",
  "sourcePath": "D:\\Projects\\networkpoll\\contracts\\EVoting.sol",
  "compiler": {
    "name": "solc",
    "version": "0.8.4+commit.c7e474f2.Emscripten.clang"
  },
  "schemaVersion": "3.4.10",
  "updatedAt": "2023-01-11T05:02:29.663Z",
  "networkType": "ethereum",
  "devdoc": {
    "kind": "dev",
    "methods": {},
    "version": 1
  },
  "userdoc": {
    "kind": "user",
    "methods": {},
    "version": 1
  }
}