{
  "contractName": "EVotingVR3",
  "abi": [
    {
      "inputs": [],
      "stateMutability": "nonpayable",
      "type": "constructor"
    },
    {
      "inputs": [
        {
          "internalType": "uint256",
          "name": "",
          "type": "uint256"
        }
      ],
      "name": "candidates",
      "outputs": [
        {
          "internalType": "string",
          "name": "",
          "type": "string"
        }
      ],
      "stateMutability": "view",
      "type": "function"
    },
    {
      "inputs": [],
      "name": "electionOpen",
      "outputs": [
        {
          "internalType": "bool",
          "name": "",
          "type": "bool"
        }
      ],
      "stateMutability": "view",
      "type": "function"
    },
    {
      "inputs": [],
      "name": "owner",
      "outputs": [
        {
          "internalType": "address",
          "name": "",
          "type": "address"
        }
      ],
      "stateMutability": "view",
      "type": "function"
    },
    {
      "inputs": [],
      "name": "totalVotes",
      "outputs": [
        {
          "internalType": "uint256",
          "name": "",
          "type": "uint256"
        }
      ],
      "stateMutability": "view",
      "type": "function"
    },
    {
      "inputs": [
        {
          "internalType": "address",
          "name": "",
          "type": "address"
        }
      ],
      "name": "voters",
      "outputs": [
        {
          "internalType": "bool",
          "name": "",
          "type": "bool"
        }
      ],
      "stateMutability": "view",
      "type": "function"
    },
    {
      "inputs": [
        {
          "internalType": "uint256",
          "name": "",
          "type": "uint256"
        }
      ],
      "name": "votes",
      "outputs": [
        {
          "internalType": "uint256",
          "name": "",
          "type": "uint256"
        }
      ],
      "stateMutability": "view",
      "type": "function"
    },
    {
      "inputs": [
        {
          "internalType": "address",
          "name": "_voter",
          "type": "address"
        }
      ],
      "name": "registerVoter",
      "outputs": [],
      "stateMutability": "nonpayable",
      "type": "function"
    },
    {
      "inputs": [
        {
          "internalType": "uint256",
          "name": "_candidateIndex",
          "type": "uint256"
        }
      ],
      "name": "vote",
      "outputs": [],
      "stateMutability": "nonpayable",
      "type": "function"
    },
    {
      "inputs": [],
      "name": "closeElection",
      "outputs": [],
      "stateMutability": "nonpayable",
      "type": "function"
    },
    {
      "inputs": [],
      "name": "getElectionResult",
      "outputs": [
        {
          "internalType": "uint256[]",
          "name": "",
          "type": "uint256[]"
        }
      ],
      "stateMutability": "view",
      "type": "function"
    }
  ],
  "bytecode": "0x60806040523480156200001157600080fd5b50336000806101000a81548173ffffffffffffffffffffffffffffffffffffffff021916908373ffffffffffffffffffffffffffffffffffffffff16021790555060405180606001604052806040518060400160405280600b81526020017f43616e646964617465203100000000000000000000000000000000000000000081525081526020016040518060400160405280600b81526020017f43616e646964617465203200000000000000000000000000000000000000000081525081526020016040518060400160405280600b81526020017f43616e646964617465203300000000000000000000000000000000000000000081525081525060029060036200011e929190620001ce565b5060028054905067ffffffffffffffff81111562000165577f4e487b7100000000000000000000000000000000000000000000000000000000600052604160045260246000fd5b604051908082528060200260200182016040528015620001945781602001602082028036833780820191505090505b5060039080519060200190620001ac92919062000235565b506001600560006101000a81548160ff0219169083151502179055506200040a565b82805482825590600052602060002090810192821562000222579160200282015b82811115620002215782518290805190602001906200021092919062000287565b5091602001919060010190620001ef565b5b50905062000231919062000318565b5090565b82805482825590600052602060002090810192821562000274579160200282015b828111156200027357825182559160200191906001019062000256565b5b50905062000283919062000340565b5090565b8280546200029590620003a5565b90600052602060002090601f016020900481019282620002b9576000855562000305565b82601f10620002d457805160ff191683800117855562000305565b8280016001018555821562000305579182015b8281111562000304578251825591602001919060010190620002e7565b5b50905062000314919062000340565b5090565b5b808211156200033c57600081816200033291906200035f565b5060010162000319565b5090565b5b808211156200035b57600081600090555060010162000341565b5090565b5080546200036d90620003a5565b6000825580601f10620003815750620003a2565b601f016020900490600052602060002090810190620003a1919062000340565b5b50565b60006002820490506001821680620003be57607f821691505b60208210811415620003d557620003d4620003db565b5b50919050565b7f4e487b7100000000000000000000000000000000000000000000000000000000600052602260045260246000fd5b610f16806200041a6000396000f3fe608060405234801561001057600080fd5b50600436106100bb576000357c0100000000000000000000000000000000000000000000000000000000900480635df81330116100835780635df81330146101645780636c6c32d0146101945780638da5cb5b1461019e578063a3ec138d146101bc578063ca3eb443146101ec576100bb565b80630121b93f146100c05780630d15fd77146100dc5780633477ee2e146100fa57806338db6dd31461012a5780634a39d44214610146575b600080fd5b6100da60048036038101906100d591906107e9565b61020a565b005b6100e46103a1565b6040516100f19190610b4c565b60405180910390f35b610114600480360381019061010f91906107e9565b6103a7565b6040516101219190610a4a565b60405180910390f35b610144600480360381019061013f91906107c0565b610453565b005b61014e6105c8565b60405161015b9190610a2f565b60405180910390f35b61017e600480360381019061017991906107e9565b6105db565b60405161018b9190610b4c565b60405180910390f35b61019c6105ff565b005b6101a66106aa565b6040516101b391906109f2565b60405180910390f35b6101d660048036038101906101d191906107c0565b6106ce565b6040516101e39190610a2f565b60405180910390f35b6101f46106ee565b6040516102019190610a0d565b60405180910390f35b600560009054906101000a900460ff16610259576040517f08c379a000000000000000000000000000000000000000000000000000000000815260040161025090610b0c565b60405180910390fd5b600160003373ffffffffffffffffffffffffffffffffffffffff1673ffffffffffffffffffffffffffffffffffffffff16815260200190815260200160002060009054906101000a900460ff166102e5576040517f08c379a00000000000000000000000000000000000000000000000000000000081526004016102dc90610aec565b60405180910390fd5b600280549050811061032c576040517f08c379a000000000000000000000000000000000000000000000000000000000815260040161032390610a8c565b60405180910390fd5b60038181548110610366577f4e487b7100000000000000000000000000000000000000000000000000000000600052603260045260246000fd5b90600052602060002001600081548092919061038190610c69565b91905055506004600081548092919061039990610c69565b919050555050565b60045481565b600281815481106103b757600080fd5b9060005260206000200160009150905080546103d290610c37565b80601f01602080910402602001604051908101604052809291908181526020018280546103fe90610c37565b801561044b5780601f106104205761010080835404028352916020019161044b565b820191906000526020600020905b81548152906001019060200180831161042e57829003601f168201915b505050505081565b60008054906101000a900473ffffffffffffffffffffffffffffffffffffffff1673ffffffffffffffffffffffffffffffffffffffff163373ffffffffffffffffffffffffffffffffffffffff16146104e1576040517f08c379a00000000000000000000000000000000000000000000000000000000081526004016104d890610acc565b60405180910390fd5b600160008273ffffffffffffffffffffffffffffffffffffffff1673ffffffffffffffffffffffffffffffffffffffff16815260200190815260200160002060009054906101000a900460ff161561056e576040517f08c379a000000000000000000000000000000000000000000000000000000000815260040161056590610a6c565b60405180910390fd5b60018060008373ffffffffffffffffffffffffffffffffffffffff1673ffffffffffffffffffffffffffffffffffffffff16815260200190815260200160002060006101000a81548160ff02191690831515021790555050565b600560009054906101000a900460ff1681565b600381815481106105eb57600080fd5b906000526020600020016000915090505481565b60008054906101000a900473ffffffffffffffffffffffffffffffffffffffff1673ffffffffffffffffffffffffffffffffffffffff163373ffffffffffffffffffffffffffffffffffffffff161461068d576040517f08c379a000000000000000000000000000000000000000000000000000000000815260040161068490610b2c565b60405180910390fd5b6000600560006101000a81548160ff021916908315150217905550565b60008054906101000a900473ffffffffffffffffffffffffffffffffffffffff1681565b60016020528060005260406000206000915054906101000a900460ff1681565b6060600560009054906101000a900460ff1615610740576040517f08c379a000000000000000000000000000000000000000000000000000000000815260040161073790610aac565b60405180910390fd5b600380548060200260200160405190810160405280929190818152602001828054801561078c57602002820191906000526020600020905b815481526020019060010190808311610778575b5050505050905090565b6000813590506107a581610eb2565b92915050565b6000813590506107ba81610ec9565b92915050565b6000602082840312156107d257600080fd5b60006107e084828501610796565b91505092915050565b6000602082840312156107fb57600080fd5b6000610809848285016107ab565b91505092915050565b600061081e83836109d4565b60208301905092915050565b61083381610bbc565b82525050565b600061084482610b77565b61084e8185610b9a565b935061085983610b67565b8060005b8381101561088a5781516108718882610812565b975061087c83610b8d565b92505060018101905061085d565b5085935050505092915050565b6108a081610bce565b82525050565b60006108b182610b82565b6108bb8185610bab565b93506108cb818560208601610c04565b6108d481610d10565b840191505092915050565b60006108ec602783610bab565b91506108f782610d21565b604082019050919050565b600061090f601883610bab565b915061091a82610d70565b602082019050919050565b6000610932601b83610bab565b915061093d82610d99565b602082019050919050565b6000610955602c83610bab565b915061096082610dc2565b604082019050919050565b6000610978601f83610bab565b915061098382610e11565b602082019050919050565b600061099b601783610bab565b91506109a682610e3a565b602082019050919050565b60006109be602f83610bab565b91506109c982610e63565b604082019050919050565b6109dd81610bfa565b82525050565b6109ec81610bfa565b82525050565b6000602082019050610a07600083018461082a565b92915050565b60006020820190508181036000830152610a278184610839565b905092915050565b6000602082019050610a446000830184610897565b92915050565b60006020820190508181036000830152610a6481846108a6565b905092915050565b60006020820190508181036000830152610a85816108df565b9050919050565b60006020820190508181036000830152610aa581610902565b9050919050565b60006020820190508181036000830152610ac581610925565b9050919050565b60006020820190508181036000830152610ae581610948565b9050919050565b60006020820190508181036000830152610b058161096b565b9050919050565b60006020820190508181036000830152610b258161098e565b9050919050565b60006020820190508181036000830152610b45816109b1565b9050919050565b6000602082019050610b6160008301846109e3565b92915050565b6000819050602082019050919050565b600081519050919050565b600081519050919050565b6000602082019050919050565b600082825260208201905092915050565b600082825260208201905092915050565b6000610bc782610bda565b9050919050565b60008115159050919050565b600073ffffffffffffffffffffffffffffffffffffffff82169050919050565b6000819050919050565b60005b83811015610c22578082015181840152602081019050610c07565b83811115610c31576000848401525b50505050565b60006002820490506001821680610c4f57607f821691505b60208210811415610c6357610c62610ce1565b5b50919050565b6000610c7482610bfa565b91507fffffffffffffffffffffffffffffffffffffffffffffffffffffffffffffffff821415610ca757610ca6610cb2565b5b600182019050919050565b7f4e487b7100000000000000000000000000000000000000000000000000000000600052601160045260246000fd5b7f4e487b7100000000000000000000000000000000000000000000000000000000600052602260045260246000fd5b6000601f19601f8301169050919050565b7f5468697320766f7465722068617320616c7265616479206265656e207265676960008201527f7374657265642e00000000000000000000000000000000000000000000000000602082015250565b7f496e76616c69642063616e64696461746520696e6465782e0000000000000000600082015250565b7f54686520656c656374696f6e206973207374696c6c206f70656e2e0000000000600082015250565b7f4f6e6c792074686520636f6e7472616374206f776e65722063616e207265676960008201527f7374657220766f746572732e0000000000000000000000000000000000000000602082015250565b7f596f75206d757374206265207265676973746572656420746f20766f74652e00600082015250565b7f54686520656c656374696f6e20697320636c6f7365642e000000000000000000600082015250565b7f4f6e6c792074686520636f6e7472616374206f776e65722063616e20636c6f7360008201527f652074686520656c656374696f6e2e0000000000000000000000000000000000602082015250565b610ebb81610bbc565b8114610ec657600080fd5b50565b610ed281610bfa565b8114610edd57600080fd5b5056fea264697066735822122042124909bccc46ff0e27d6a0bcadc03de97362df0165746d382475a10150b81864736f6c63430008040033",
  "immutableReferences": {},
  "source": "// SPDX-License-Identifier: MIT\r\npragma solidity ^0.8.0;\r\n\r\ncontract EVotingVR3 {\r\n    // The address of the contract owner\r\n    address public owner;\r\n\r\n    // The list of registered voters\r\n    mapping(address => bool) public voters;\r\n\r\n    // The list of candidates\r\n    string[] public candidates;\r\n\r\n    // The number of votes for each candidate\r\n    uint[] public votes;\r\n\r\n    // The total number of votes cast\r\n    uint public totalVotes;\r\n\r\n    // The state of the election (open or closed)\r\n    bool public electionOpen;\r\n\r\n    // The constructor sets the contract owner and initializes the candidates\r\n    constructor() {\r\n        owner = msg.sender;\r\n        candidates = [\"Candidate 1\", \"Candidate 2\", \"Candidate 3\"];\r\n        votes = new uint[](candidates.length);\r\n        electionOpen = true;\r\n    }\r\n\r\n    // A function to register a voter\r\n    function registerVoter(address _voter) public {\r\n        // Only the contract owner can register voters\r\n        require(msg.sender == owner, \"Only the contract owner can register voters.\");\r\n\r\n        // A voter can only be registered once\r\n        require(!voters[_voter], \"This voter has already been registered.\");\r\n\r\n        voters[_voter] = true;\r\n    }\r\n\r\n    // A function to cast a vote\r\n    function vote(uint _candidateIndex) public {\r\n        // The election must be open\r\n        require(electionOpen, \"The election is closed.\");\r\n\r\n        // The voter must be registered\r\n        require(voters[msg.sender], \"You must be registered to vote.\");\r\n\r\n        // The candidate index must be valid\r\n        require(_candidateIndex < candidates.length, \"Invalid candidate index.\");\r\n\r\n        // Increment the vote count for the chosen candidate\r\n        votes[_candidateIndex]++;\r\n        totalVotes++;\r\n    }\r\n\r\n    // A function to close the election\r\n    function closeElection() public {\r\n        // Only the contract owner can close the election\r\n        require(msg.sender == owner, \"Only the contract owner can close the election.\");\r\n\r\n        electionOpen = false;\r\n    }\r\n\r\n    // A function to get the result of the election\r\n    function getElectionResult() public view returns (uint[] memory) {\r\n        // The election must be closed\r\n        require(!electionOpen, \"The election is still open.\");\r\n\r\n        return votes;\r\n    }\r\n}",
  "sourcePath": "D:\\Projects\\networkpoll\\contracts\\EVotingVR3.sol",
  "compiler": {
    "name": "solc",
    "version": "0.8.4+commit.c7e474f2.Emscripten.clang"
  },
  "schemaVersion": "3.4.10",
  "updatedAt": "2023-01-11T05:02:28.251Z",
  "networkType": "ethereum",
  "devdoc": {
    "kind": "dev",
    "methods": {},
    "version": 1
  },
  "userdoc": {
    "kind": "user",
    "methods": {},
    "version": 1
  }
}