{
  "contractName": "IpfsFileStorage",
  "abi": [
    {
      "inputs": [],
      "name": "ipfsHash",
      "outputs": [
        {
          "internalType": "uint256",
          "name": "",
          "type": "uint256"
        }
      ],
      "stateMutability": "view",
      "type": "function",
      "constant": true
    },
    {
      "inputs": [
        {
          "internalType": "uint256",
          "name": "x",
          "type": "uint256"
        }
      ],
      "name": "set",
      "outputs": [],
      "stateMutability": "nonpayable",
      "type": "function"
    },
    {
      "inputs": [],
      "name": "get",
      "outputs": [
        {
          "internalType": "uint256",
          "name": "",
          "type": "uint256"
        }
      ],
      "stateMutability": "view",
      "type": "function",
      "constant": true
    }
  ],
  "bytecode": "0x608060405234801561001057600080fd5b50610193806100206000396000f3fe608060405234801561001057600080fd5b506004361061005e576000357c01000000000000000000000000000000000000000000000000000000009004806360fe47b1146100635780636d4ce63c1461007f578063c623674f1461009d575b600080fd5b61007d600480360381019061007891906100e9565b6100bb565b005b6100876100c5565b6040516100949190610121565b60405180910390f35b6100a56100ce565b6040516100b29190610121565b60405180910390f35b8060008190555050565b60008054905090565b60005481565b6000813590506100e381610146565b92915050565b6000602082840312156100fb57600080fd5b6000610109848285016100d4565b91505092915050565b61011b8161013c565b82525050565b60006020820190506101366000830184610112565b92915050565b6000819050919050565b61014f8161013c565b811461015a57600080fd5b5056fea26469706673582212204ef90f692ccdb5ed534a5d30c77f15b5cd81140ed3b0109fb5b2fb1543a10ef364736f6c63430008040033",
  "immutableReferences": {},
  "source": "// SPDX-License-Identifier: MIT\npragma solidity ^0.8.0;\n\ncontract IpfsFileStorage {\n  uint256 public ipfsHash;\n\n  function set(uint256 x) public {\n    ipfsHash = x;\n  }\n\n  function get() public view returns(uint256){\n    return ipfsHash;\n  }\n}\n",
  "sourcePath": "D:\\Projects\\networkpoll\\contracts\\IpfsFileStorage.sol",
  "compiler": {
    "name": "solc",
    "version": "0.8.4+commit.c7e474f2.Emscripten.clang"
  },
  "schemaVersion": "3.4.10",
  "updatedAt": "2022-12-26T20:52:18.995Z",
  "networkType": "ethereum",
  "devdoc": {
    "kind": "dev",
    "methods": {},
    "version": 1
  },
  "userdoc": {
    "kind": "user",
    "methods": {},
    "version": 1
  }
}