{
  "contractName": "VoteSystem",
  "abi": [
    {
      "inputs": [],
      "stateMutability": "nonpayable",
      "type": "constructor"
    },
    {
      "inputs": [
        {
          "internalType": "uint256",
          "name": "",
          "type": "uint256"
        }
      ],
      "name": "candidates",
      "outputs": [
        {
          "internalType": "string",
          "name": "",
          "type": "string"
        }
      ],
      "stateMutability": "view",
      "type": "function",
      "constant": true
    },
    {
      "inputs": [],
      "name": "owner",
      "outputs": [
        {
          "internalType": "address",
          "name": "",
          "type": "address"
        }
      ],
      "stateMutability": "view",
      "type": "function",
      "constant": true
    },
    {
      "inputs": [
        {
          "internalType": "address",
          "name": "",
          "type": "address"
        }
      ],
      "name": "voters",
      "outputs": [
        {
          "internalType": "bool",
          "name": "",
          "type": "bool"
        }
      ],
      "stateMutability": "view",
      "type": "function",
      "constant": true
    },
    {
      "inputs": [
        {
          "internalType": "uint256",
          "name": "",
          "type": "uint256"
        }
      ],
      "name": "votes",
      "outputs": [
        {
          "internalType": "uint256",
          "name": "",
          "type": "uint256"
        }
      ],
      "stateMutability": "view",
      "type": "function",
      "constant": true
    },
    {
      "inputs": [],
      "name": "votingOpen",
      "outputs": [
        {
          "internalType": "bool",
          "name": "",
          "type": "bool"
        }
      ],
      "stateMutability": "view",
      "type": "function",
      "constant": true
    },
    {
      "inputs": [
        {
          "internalType": "string",
          "name": "_candidate",
          "type": "string"
        }
      ],
      "name": "addCandidate",
      "outputs": [],
      "stateMutability": "nonpayable",
      "type": "function"
    },
    {
      "inputs": [
        {
          "internalType": "address",
          "name": "_voter",
          "type": "address"
        }
      ],
      "name": "registerVoter",
      "outputs": [],
      "stateMutability": "nonpayable",
      "type": "function"
    },
    {
      "inputs": [
        {
          "internalType": "uint256",
          "name": "_candidateIndex",
          "type": "uint256"
        }
      ],
      "name": "vote",
      "outputs": [],
      "stateMutability": "nonpayable",
      "type": "function"
    },
    {
      "inputs": [],
      "name": "closeVoting",
      "outputs": [],
      "stateMutability": "nonpayable",
      "type": "function"
    },
    {
      "inputs": [
        {
          "internalType": "uint256",
          "name": "_candidateIndex",
          "type": "uint256"
        }
      ],
      "name": "getVotes",
      "outputs": [
        {
          "internalType": "uint256",
          "name": "",
          "type": "uint256"
        }
      ],
      "stateMutability": "view",
      "type": "function",
      "constant": true
    },
    {
      "inputs": [],
      "name": "getWinner",
      "outputs": [
        {
          "internalType": "uint256",
          "name": "",
          "type": "uint256"
        }
      ],
      "stateMutability": "view",
      "type": "function",
      "constant": true
    }
  ],
  "bytecode": "0x608060405234801561001057600080fd5b50336000806101000a81548173ffffffffffffffffffffffffffffffffffffffff021916908373ffffffffffffffffffffffffffffffffffffffff1602179055506001600460006101000a81548160ff0219169083151502179055506111358061007b6000396000f3fe608060405234801561001057600080fd5b50600436106100c6576000357c0100000000000000000000000000000000000000000000000000000000900480638da5cb5b1161008e5780638da5cb5b1461017f5780638e7ea5b21461019d578063a3ec138d146101bb578063a95824b4146101eb578063c631b29214610209578063ff98109914610213576100c6565b80630121b93f146100cb5780633477ee2e146100e757806338db6dd314610117578063462e91ec146101335780635df813301461014f575b600080fd5b6100e560048036038101906100e09190610a6f565b610243565b005b61010160048036038101906100fc9190610a6f565b610373565b60405161010e9190610c29565b60405180910390f35b610131600480360381019061012c9190610a05565b61041f565b005b61014d60048036038101906101489190610a2e565b610506565b005b61016960048036038101906101649190610a6f565b61064a565b6040516101769190610d2b565b60405180910390f35b61018761066e565b6040516101949190610bf3565b60405180910390f35b6101a5610692565b6040516101b29190610d2b565b60405180910390f35b6101d560048036038101906101d09190610a05565b61075d565b6040516101e29190610c0e565b60405180910390f35b6101f361077d565b6040516102009190610c0e565b60405180910390f35b610211610790565b005b61022d60048036038101906102289190610a6f565b61083b565b60405161023a9190610d2b565b60405180910390f35b600160003373ffffffffffffffffffffffffffffffffffffffff1673ffffffffffffffffffffffffffffffffffffffff16815260200190815260200160002060009054906101000a900460ff166102cf576040517f08c379a00000000000000000000000000000000000000000000000000000000081526004016102c690610c8b565b60405180910390fd5b6002805490508110610316576040517f08c379a000000000000000000000000000000000000000000000000000000000815260040161030d90610cab565b60405180910390fd5b60038181548110610350577f4e487b7100000000000000000000000000000000000000000000000000000000600052603260045260246000fd5b90600052602060002001600081548092919061036b90610ea5565b919050555050565b6002818154811061038357600080fd5b90600052602060002001600091509050805461039e90610e42565b80601f01602080910402602001604051908101604052809291908181526020018280546103ca90610e42565b80156104175780601f106103ec57610100808354040283529160200191610417565b820191906000526020600020905b8154815290600101906020018083116103fa57829003601f168201915b505050505081565b600160008273ffffffffffffffffffffffffffffffffffffffff1673ffffffffffffffffffffffffffffffffffffffff16815260200190815260200160002060009054906101000a900460ff16156104ac576040517f08c379a00000000000000000000000000000000000000000000000000000000081526004016104a390610c6b565b60405180910390fd5b60018060008373ffffffffffffffffffffffffffffffffffffffff1673ffffffffffffffffffffffffffffffffffffffff16815260200190815260200160002060006101000a81548160ff02191690831515021790555050565b600460009054906101000a900460ff16610555576040517f08c379a000000000000000000000000000000000000000000000000000000000815260040161054c90610d0b565b60405180910390fd5b600a6002805490501061059d576040517f08c379a000000000000000000000000000000000000000000000000000000000815260040161059490610ceb565b60405180910390fd5b60008151116105e1576040517f08c379a00000000000000000000000000000000000000000000000000000000081526004016105d890610c4b565b60405180910390fd5b60028190806001815401808255809150506001900390600052602060002001600090919091909150908051906020019061061c9291906108d0565b5060036000908060018154018082558091505060019003906000526020600020016000909190919091505550565b6003818154811061065a57600080fd5b906000526020600020016000915090505481565b60008054906101000a900473ffffffffffffffffffffffffffffffffffffffff1681565b600080600090506000805b6002805490508110156107545782600382815481106106e5577f4e487b7100000000000000000000000000000000000000000000000000000000600052603260045260246000fd5b906000526020600020015411156107415760038181548110610730577f4e487b7100000000000000000000000000000000000000000000000000000000600052603260045260246000fd5b906000526020600020015492508091505b808061074c90610ea5565b91505061069d565b50809250505090565b60016020528060005260406000206000915054906101000a900460ff1681565b600460009054906101000a900460ff1681565b60008054906101000a900473ffffffffffffffffffffffffffffffffffffffff1673ffffffffffffffffffffffffffffffffffffffff163373ffffffffffffffffffffffffffffffffffffffff161461081e576040517f08c379a000000000000000000000000000000000000000000000000000000000815260040161081590610ccb565b60405180910390fd5b6000600460006101000a81548160ff021916908315150217905550565b60006002805490508210610884576040517f08c379a000000000000000000000000000000000000000000000000000000000815260040161087b90610cab565b60405180910390fd5b600382815481106108be577f4e487b7100000000000000000000000000000000000000000000000000000000600052603260045260246000fd5b90600052602060002001549050919050565b8280546108dc90610e42565b90600052602060002090601f0160209004810192826108fe5760008555610945565b82601f1061091757805160ff1916838001178555610945565b82800160010185558215610945579182015b82811115610944578251825591602001919060010190610929565b5b5090506109529190610956565b5090565b5b8082111561096f576000816000905550600101610957565b5090565b600061098661098184610d6b565b610d46565b90508281526020810184848401111561099e57600080fd5b6109a9848285610e00565b509392505050565b6000813590506109c0816110d1565b92915050565b600082601f8301126109d757600080fd5b81356109e7848260208601610973565b91505092915050565b6000813590506109ff816110e8565b92915050565b600060208284031215610a1757600080fd5b6000610a25848285016109b1565b91505092915050565b600060208284031215610a4057600080fd5b600082013567ffffffffffffffff811115610a5a57600080fd5b610a66848285016109c6565b91505092915050565b600060208284031215610a8157600080fd5b6000610a8f848285016109f0565b91505092915050565b610aa181610db8565b82525050565b610ab081610dca565b82525050565b6000610ac182610d9c565b610acb8185610da7565b9350610adb818560208601610e0f565b610ae481610f7b565b840191505092915050565b6000610afc601683610da7565b9150610b0782610f8c565b602082019050919050565b6000610b1f601883610da7565b9150610b2a82610fb5565b602082019050919050565b6000610b42601483610da7565b9150610b4d82610fde565b602082019050919050565b6000610b65601783610da7565b9150610b7082611007565b602082019050919050565b6000610b88602883610da7565b9150610b9382611030565b604082019050919050565b6000610bab601383610da7565b9150610bb68261107f565b602082019050919050565b6000610bce601083610da7565b9150610bd9826110a8565b602082019050919050565b610bed81610df6565b82525050565b6000602082019050610c086000830184610a98565b92915050565b6000602082019050610c236000830184610aa7565b92915050565b60006020820190508181036000830152610c438184610ab6565b905092915050565b60006020820190508181036000830152610c6481610aef565b9050919050565b60006020820190508181036000830152610c8481610b12565b9050919050565b60006020820190508181036000830152610ca481610b35565b9050919050565b60006020820190508181036000830152610cc481610b58565b9050919050565b60006020820190508181036000830152610ce481610b7b565b9050919050565b60006020820190508181036000830152610d0481610b9e565b9050919050565b60006020820190508181036000830152610d2481610bc1565b9050919050565b6000602082019050610d406000830184610be4565b92915050565b6000610d50610d61565b9050610d5c8282610e74565b919050565b6000604051905090565b600067ffffffffffffffff821115610d8657610d85610f4c565b5b610d8f82610f7b565b9050602081019050919050565b600081519050919050565b600082825260208201905092915050565b6000610dc382610dd6565b9050919050565b60008115159050919050565b600073ffffffffffffffffffffffffffffffffffffffff82169050919050565b6000819050919050565b82818337600083830152505050565b60005b83811015610e2d578082015181840152602081019050610e12565b83811115610e3c576000848401525b50505050565b60006002820490506001821680610e5a57607f821691505b60208210811415610e6e57610e6d610f1d565b5b50919050565b610e7d82610f7b565b810181811067ffffffffffffffff82111715610e9c57610e9b610f4c565b5b80604052505050565b6000610eb082610df6565b91507fffffffffffffffffffffffffffffffffffffffffffffffffffffffffffffffff821415610ee357610ee2610eee565b5b600182019050919050565b7f4e487b7100000000000000000000000000000000000000000000000000000000600052601160045260246000fd5b7f4e487b7100000000000000000000000000000000000000000000000000000000600052602260045260246000fd5b7f4e487b7100000000000000000000000000000000000000000000000000000000600052604160045260246000fd5b6000601f19601f8301169050919050565b7f496e76616c69642063616e646964617465206e616d6500000000000000000000600082015250565b7f566f74657220616c726561647920726567697374657265640000000000000000600082015250565b7f566f746572206e6f742072656769737465726564000000000000000000000000600082015250565b7f496e76616c69642063616e64696461746520696e646578000000000000000000600082015250565b7f4f6e6c792074686520636f6e7472616374206f776e65722063616e20636c6f7360008201527f6520766f74696e67000000000000000000000000000000000000000000000000602082015250565b7f546f6f206d616e792063616e6469646174657300000000000000000000000000600082015250565b7f566f74696e6720697320636c6f73656400000000000000000000000000000000600082015250565b6110da81610db8565b81146110e557600080fd5b50565b6110f181610df6565b81146110fc57600080fd5b5056fea26469706673582212204bb88fcf688749120939fbb5cbcea91ae7becc47d13146e5d4a3d21b91fdf92964736f6c63430008040033",
  "immutableReferences": {},
  "source": "// SPDX-License-Identifier: MIT\r\npragma solidity ^0.8.0;\r\n\r\ncontract VoteSystem {\r\n  // the address of the contract owner\r\n  address public owner;\r\n\r\n  // the list of voters\r\n  mapping(address => bool) public voters;\r\n\r\n  // the list of candidates\r\n  string[] public candidates;\r\n\r\n  // the number of votes for each candidate\r\n  uint[] public votes;\r\n\r\n  // the flag to indicate if voting is open or closed\r\n  bool public votingOpen;\r\n\r\n  // the constructor function\r\n  constructor() {\r\n    owner = msg.sender;\r\n    votingOpen = true;\r\n  }\r\n\r\n  // function to add a candidate to the list of candidates\r\n  function addCandidate(string memory _candidate) public {\r\n    require(votingOpen, \"Voting is closed\");\r\n    require(candidates.length < 10, \"Too many candidates\");\r\n    require(bytes(_candidate).length > 0, \"Invalid candidate name\");\r\n    candidates.push(_candidate);\r\n    votes.push(0);\r\n  }\r\n\r\n  // function to register a voter\r\n  function registerVoter(address _voter) public {\r\n    require(!voters[_voter], \"Voter already registered\");\r\n    voters[_voter] = true;\r\n  }\r\n\r\n  // function to cast a vote\r\n  function vote(uint _candidateIndex) public {\r\n    require(voters[msg.sender], \"Voter not registered\");\r\n    require(_candidateIndex < candidates.length, \"Invalid candidate index\");\r\n    votes[_candidateIndex]++;\r\n  }\r\n\r\n  // function to close voting\r\n  function closeVoting() public {\r\n    require(msg.sender == owner, \"Only the contract owner can close voting\");\r\n    votingOpen = false;\r\n  }\r\n\r\n  // function to get the total number of votes for a candidate\r\n  function getVotes(uint _candidateIndex) public view returns (uint) {\r\n    require(_candidateIndex < candidates.length, \"Invalid candidate index\");\r\n    return votes[_candidateIndex];\r\n  }\r\n\r\n  // function to get the winner of the election\r\n  function getWinner() public view returns (uint) {\r\n    uint maxVotes = 0;\r\n    uint winnerIndex = 0;\r\n    for (uint i = 0; i < candidates.length; i++) {\r\n      if (votes[i] > maxVotes) {\r\n        maxVotes = votes[i];\r\n        winnerIndex = i;\r\n      }\r\n    }\r\n    return winnerIndex;\r\n  }\r\n}\r\n",
  "sourcePath": "D:\\Projects\\networkpoll\\contracts\\VoteSystem.sol",
  "compiler": {
    "name": "solc",
    "version": "0.8.4+commit.c7e474f2.Emscripten.clang"
  },
  "schemaVersion": "3.4.10",
  "updatedAt": "2022-12-26T20:52:23.958Z",
  "networkType": "ethereum",
  "devdoc": {
    "kind": "dev",
    "methods": {},
    "version": 1
  },
  "userdoc": {
    "kind": "user",
    "methods": {},
    "version": 1
  }
}